{
  "contractName": "PathsDB",
  "abi": [
    {
      "constant": false,
      "inputs": [
        {
          "name": "checkpoint",
          "type": "address"
        }
      ],
      "name": "addCheckpoint",
      "outputs": [
        {
          "name": "",
          "type": "bool"
        }
      ],
      "payable": false,
      "stateMutability": "nonpayable",
      "type": "function"
    },
    {
      "constant": true,
      "inputs": [],
      "name": "getPath",
      "outputs": [
        {
          "name": "",
          "type": "address[]"
        }
      ],
      "payable": false,
      "stateMutability": "view",
      "type": "function"
    },
    {
      "constant": false,
      "inputs": [],
      "name": "destroy",
      "outputs": [],
      "payable": false,
      "stateMutability": "nonpayable",
      "type": "function"
    },
    {
      "constant": true,
      "inputs": [],
      "name": "owner",
      "outputs": [
        {
          "name": "",
          "type": "address"
        }
      ],
      "payable": false,
      "stateMutability": "view",
      "type": "function"
    },
    {
      "constant": true,
      "inputs": [],
      "name": "getPathLength",
      "outputs": [
        {
          "name": "",
          "type": "uint256"
        }
      ],
      "payable": false,
      "stateMutability": "view",
      "type": "function"
    },
    {
      "constant": true,
      "inputs": [
        {
          "name": "",
          "type": "uint256"
        }
      ],
      "name": "path",
      "outputs": [
        {
          "name": "",
          "type": "address"
        }
      ],
      "payable": false,
      "stateMutability": "view",
      "type": "function"
    },
    {
      "inputs": [],
      "payable": false,
      "stateMutability": "nonpayable",
      "type": "constructor"
    }
  ],
  "bytecode": "0x6060604052341561000f57600080fd5b33600160006101000a81548173ffffffffffffffffffffffffffffffffffffffff021916908373ffffffffffffffffffffffffffffffffffffffff1602179055506105d18061005f6000396000f300606060405260043610610078576000357c0100000000000000000000000000000000000000000000000000000000900463ffffffff1680631d092adf1461007d578063555b37be146100ce57806383197ef0146101385780638da5cb5b1461014d578063a550450c146101a2578063af6d1fe4146101cb575b600080fd5b341561008857600080fd5b6100b4600480803573ffffffffffffffffffffffffffffffffffffffff1690602001909190505061022e565b604051808215151515815260200191505060405180910390f35b34156100d957600080fd5b6100e1610353565b6040518080602001828103825283818151815260200191508051906020019060200280838360005b83811015610124578082015181840152602081019050610109565b505050509050019250505060405180910390f35b341561014357600080fd5b61014b61043c565b005b341561015857600080fd5b6101606104cf565b604051808273ffffffffffffffffffffffffffffffffffffffff1673ffffffffffffffffffffffffffffffffffffffff16815260200191505060405180910390f35b34156101ad57600080fd5b6101b56104f5565b6040518082815260200191505060405180910390f35b34156101d657600080fd5b6101ec6004808035906020019091905050610501565b604051808273ffffffffffffffffffffffffffffffffffffffff1673ffffffffffffffffffffffffffffffffffffffff16815260200191505060405180910390f35b6000808273ffffffffffffffffffffffffffffffffffffffff161415610257576000905061034e565b6000808054905014806102d857508173ffffffffffffffffffffffffffffffffffffffff16600060016000805490500381548110151561029357fe5b906000526020600020900160009054906101000a900473ffffffffffffffffffffffffffffffffffffffff1673ffffffffffffffffffffffffffffffffffffffff1614155b1561034957600080548060010182816102f19190610540565b9160005260206000209001600084909190916101000a81548173ffffffffffffffffffffffffffffffffffffffff021916908373ffffffffffffffffffffffffffffffffffffffff160217905550506001905061034e565b600090505b919050565b61035b61056c565b600061036561056c565b6000808054905092508260405180591061037c5750595b90808252806020026020018201604052509150600090505b600080549050811015610433576000818154811015156103b057fe5b906000526020600020900160009054906101000a900473ffffffffffffffffffffffffffffffffffffffff1682828151811015156103ea57fe5b9060200190602002019073ffffffffffffffffffffffffffffffffffffffff16908173ffffffffffffffffffffffffffffffffffffffff16815250508080600101915050610394565b81935050505090565b3373ffffffffffffffffffffffffffffffffffffffff16600160009054906101000a900473ffffffffffffffffffffffffffffffffffffffff1673ffffffffffffffffffffffffffffffffffffffff1614156104cd57600160009054906101000a900473ffffffffffffffffffffffffffffffffffffffff1673ffffffffffffffffffffffffffffffffffffffff16ff5b565b600160009054906101000a900473ffffffffffffffffffffffffffffffffffffffff1681565b60008080549050905090565b60008181548110151561051057fe5b90600052602060002090016000915054906101000a900473ffffffffffffffffffffffffffffffffffffffff1681565b815481835581811511610567578183600052602060002091820191016105669190610580565b5b505050565b602060405190810160405280600081525090565b6105a291905b8082111561059e576000816000905550600101610586565b5090565b905600a165627a7a72305820b2ef89a30f2c4aaf38ff92b4005fe09f228c45ebf9f221895028d5d3221675720029",
  "source": "pragma solidity ^0.4.8;\r\n\r\ncontract PathsDB {\r\n\r\n    address[] public path;\r\n    address public owner;\r\n\r\n    function PathsDB() {\r\n      owner = msg.sender;\r\n    }\r\n\r\n    function addCheckpoint(address checkpoint) returns (bool) {\r\n      if (checkpoint == 0x0) {\r\n        return false;\r\n      }\r\n      if (path.length == 0 || path[path.length-1] != checkpoint) {\r\n        path.push(checkpoint);\r\n        return true;\r\n      }\r\n      return false;\r\n    }\r\n\r\n    function getPath() constant returns (address[]) {\r\n      uint length = path.length;\r\n\r\n      address[] memory checkpoints = new address[](length);\r\n\r\n      for (uint i = 0; i < path.length; i++) {\r\n        checkpoints[i] = path[i];\r\n      }\r\n\r\n      return checkpoints;\r\n    }\r\n\r\n    function getPathLength() constant returns (uint) {\r\n      return path.length;\r\n    }\r\n\r\n    function destroy() {\r\n        if (owner == msg.sender) selfdestruct(owner);\r\n    }\r\n}",
  "sourcePath": "C:\\Ajay\\chainer\\ChainingSupply\\contracts\\PathsDB.sol",
  "compiler": {
    "name": "solc",
    "version": "0.4.18+commit.9cf6e910.Emscripten.clang"
  },
  "schemaVersion": "1.0.1",
  "updatedAt": "2018-01-20T21:23:48.264Z"
}