{
  "contractName": "PathsController",
  "abi": [
    {
      "constant": false,
      "inputs": [
        {
          "name": "_lotId",
          "type": "uint256"
        },
        {
          "name": "_checkpoint",
          "type": "address"
        }
      ],
      "name": "addCheckpoint",
      "outputs": [
        {
          "name": "",
          "type": "bool"
        }
      ],
      "payable": false,
      "stateMutability": "nonpayable",
      "type": "function"
    },
    {
      "constant": false,
      "inputs": [],
      "name": "destroy",
      "outputs": [],
      "payable": false,
      "stateMutability": "nonpayable",
      "type": "function"
    },
    {
      "constant": true,
      "inputs": [],
      "name": "owner",
      "outputs": [
        {
          "name": "",
          "type": "address"
        }
      ],
      "payable": false,
      "stateMutability": "view",
      "type": "function"
    },
    {
      "constant": false,
      "inputs": [
        {
          "name": "_lotId",
          "type": "uint256"
        },
        {
          "name": "_checkpoint",
          "type": "address"
        }
      ],
      "name": "createPath",
      "outputs": [
        {
          "name": "",
          "type": "bool"
        }
      ],
      "payable": false,
      "stateMutability": "nonpayable",
      "type": "function"
    },
    {
      "constant": false,
      "inputs": [
        {
          "name": "_lotId",
          "type": "uint256"
        },
        {
          "name": "_checkpoint",
          "type": "address"
        }
      ],
      "name": "createOrUpdatePath",
      "outputs": [
        {
          "name": "result",
          "type": "bool"
        }
      ],
      "payable": false,
      "stateMutability": "nonpayable",
      "type": "function"
    },
    {
      "constant": true,
      "inputs": [
        {
          "name": "_lotId",
          "type": "uint256"
        }
      ],
      "name": "getPath",
      "outputs": [
        {
          "name": "path",
          "type": "address[]"
        }
      ],
      "payable": false,
      "stateMutability": "view",
      "type": "function"
    },
    {
      "constant": false,
      "inputs": [
        {
          "name": "_lotId",
          "type": "uint256"
        }
      ],
      "name": "destroyPath",
      "outputs": [
        {
          "name": "",
          "type": "bool"
        }
      ],
      "payable": false,
      "stateMutability": "nonpayable",
      "type": "function"
    },
    {
      "constant": true,
      "inputs": [
        {
          "name": "",
          "type": "uint256"
        }
      ],
      "name": "paths",
      "outputs": [
        {
          "name": "",
          "type": "address"
        }
      ],
      "payable": false,
      "stateMutability": "view",
      "type": "function"
    },
    {
      "inputs": [],
      "payable": false,
      "stateMutability": "nonpayable",
      "type": "constructor"
    }
  ],
  "bytecode": "0x6060604052341561000f57600080fd5b336000806101000a81548173ffffffffffffffffffffffffffffffffffffffff021916908373ffffffffffffffffffffffffffffffffffffffff1602179055506111438061005e6000396000f30060606040526004361061008e576000357c0100000000000000000000000000000000000000000000000000000000900463ffffffff16806317119f9a1461009357806383197ef0146100ed5780638da5cb5b14610102578063a881396914610157578063d49f4971146101b1578063e17650731461020b578063e76e035814610283578063fc1bcd49146102be575b600080fd5b341561009e57600080fd5b6100d3600480803590602001909190803573ffffffffffffffffffffffffffffffffffffffff16906020019091905050610321565b604051808215151515815260200191505060405180910390f35b34156100f857600080fd5b610100610421565b005b341561010d57600080fd5b6101156104b2565b604051808273ffffffffffffffffffffffffffffffffffffffff1673ffffffffffffffffffffffffffffffffffffffff16815260200191505060405180910390f35b341561016257600080fd5b610197600480803590602001909190803573ffffffffffffffffffffffffffffffffffffffff169060200190919050506104d7565b604051808215151515815260200191505060405180910390f35b34156101bc57600080fd5b6101f1600480803590602001909190803573ffffffffffffffffffffffffffffffffffffffff16906020019091905050610616565b604051808215151515815260200191505060405180910390f35b341561021657600080fd5b61022c60048080359060200190919050506106bc565b6040518080602001828103825283818151815260200191508051906020019060200280838360005b8381101561026f578082015181840152602081019050610254565b505050509050019250505060405180910390f35b341561028e57600080fd5b6102a46004808035906020019091905050610932565b604051808215151515815260200191505060405180910390f35b34156102c957600080fd5b6102df6004808035906020019091905050610a90565b604051808273ffffffffffffffffffffffffffffffffffffffff1673ffffffffffffffffffffffffffffffffffffffff16815260200191505060405180910390f35b6000806001600085815260200190815260200160002060009054906101000a900473ffffffffffffffffffffffffffffffffffffffff1673ffffffffffffffffffffffffffffffffffffffff16631d092adf846000604051602001526040518263ffffffff167c0100000000000000000000000000000000000000000000000000000000028152600401808273ffffffffffffffffffffffffffffffffffffffff1673ffffffffffffffffffffffffffffffffffffffff168152602001915050602060405180830381600087803b15156103fa57600080fd5b6102c65a03f1151561040b57600080fd5b5050506040518051905090508091505092915050565b3373ffffffffffffffffffffffffffffffffffffffff166000809054906101000a900473ffffffffffffffffffffffffffffffffffffffff1673ffffffffffffffffffffffffffffffffffffffff1614156104b0576000809054906101000a900473ffffffffffffffffffffffffffffffffffffffff1673ffffffffffffffffffffffffffffffffffffffff16ff5b565b6000809054906101000a900473ffffffffffffffffffffffffffffffffffffffff1681565b6000806104e2610ac3565b604051809103906000f08015156104f857600080fd5b90508073ffffffffffffffffffffffffffffffffffffffff16631d092adf846000604051602001526040518263ffffffff167c0100000000000000000000000000000000000000000000000000000000028152600401808273ffffffffffffffffffffffffffffffffffffffff1673ffffffffffffffffffffffffffffffffffffffff168152602001915050602060405180830381600087803b151561059d57600080fd5b6102c65a03f115156105ae57600080fd5b5050506040518051905050806001600086815260200190815260200160002060006101000a81548173ffffffffffffffffffffffffffffffffffffffff021916908373ffffffffffffffffffffffffffffffffffffffff160217905550600191505092915050565b60008083148061063c575060008273ffffffffffffffffffffffffffffffffffffffff16145b1561064657600090505b60006001600085815260200190815260200160002060009054906101000a900473ffffffffffffffffffffffffffffffffffffffff1673ffffffffffffffffffffffffffffffffffffffff1614156106a9576106a283836104d7565b90506106b6565b6106b38383610321565b90505b92915050565b6106c4610ad3565b60008060006001600086815260200190815260200160002060009054906101000a900473ffffffffffffffffffffffffffffffffffffffff1673ffffffffffffffffffffffffffffffffffffffff1614156107215782925061092b565b6001600085815260200190815260200160002060009054906101000a900473ffffffffffffffffffffffffffffffffffffffff1673ffffffffffffffffffffffffffffffffffffffff1663a550450c6000604051602001526040518163ffffffff167c0100000000000000000000000000000000000000000000000000000000028152600401602060405180830381600087803b15156107c057600080fd5b6102c65a03f115156107d157600080fd5b505050604051805190509150816040518059106107eb5750595b90808252806020026020018201604052509250600090505b81811015610927576001600085815260200190815260200160002060009054906101000a900473ffffffffffffffffffffffffffffffffffffffff1673ffffffffffffffffffffffffffffffffffffffff1663af6d1fe4826000604051602001526040518263ffffffff167c010000000000000000000000000000000000000000000000000000000002815260040180828152602001915050602060405180830381600087803b15156108b557600080fd5b6102c65a03f115156108c657600080fd5b5050506040518051905083828151811015156108de57fe5b9060200190602002019073ffffffffffffffffffffffffffffffffffffffff16908173ffffffffffffffffffffffffffffffffffffffff16815250508080600101915050610803565b8292505b5050919050565b60003373ffffffffffffffffffffffffffffffffffffffff166000809054906101000a900473ffffffffffffffffffffffffffffffffffffffff1673ffffffffffffffffffffffffffffffffffffffff161415610a34576001600083815260200190815260200160002060009054906101000a900473ffffffffffffffffffffffffffffffffffffffff1673ffffffffffffffffffffffffffffffffffffffff166383197ef06040518163ffffffff167c0100000000000000000000000000000000000000000000000000000000028152600401600060405180830381600087803b1515610a1f57600080fd5b6102c65a03f11515610a3057600080fd5b5050505b60006001600084815260200190815260200160002060006101000a81548173ffffffffffffffffffffffffffffffffffffffff021916908373ffffffffffffffffffffffffffffffffffffffff16021790555060019050919050565b60016020528060005260406000206000915054906101000a900473ffffffffffffffffffffffffffffffffffffffff1681565b60405161063080610ae883390190565b60206040519081016040528060008152509056006060604052341561000f57600080fd5b33600160006101000a81548173ffffffffffffffffffffffffffffffffffffffff021916908373ffffffffffffffffffffffffffffffffffffffff1602179055506105d18061005f6000396000f300606060405260043610610078576000357c0100000000000000000000000000000000000000000000000000000000900463ffffffff1680631d092adf1461007d578063555b37be146100ce57806383197ef0146101385780638da5cb5b1461014d578063a550450c146101a2578063af6d1fe4146101cb575b600080fd5b341561008857600080fd5b6100b4600480803573ffffffffffffffffffffffffffffffffffffffff1690602001909190505061022e565b604051808215151515815260200191505060405180910390f35b34156100d957600080fd5b6100e1610353565b6040518080602001828103825283818151815260200191508051906020019060200280838360005b83811015610124578082015181840152602081019050610109565b505050509050019250505060405180910390f35b341561014357600080fd5b61014b61043c565b005b341561015857600080fd5b6101606104cf565b604051808273ffffffffffffffffffffffffffffffffffffffff1673ffffffffffffffffffffffffffffffffffffffff16815260200191505060405180910390f35b34156101ad57600080fd5b6101b56104f5565b6040518082815260200191505060405180910390f35b34156101d657600080fd5b6101ec6004808035906020019091905050610501565b604051808273ffffffffffffffffffffffffffffffffffffffff1673ffffffffffffffffffffffffffffffffffffffff16815260200191505060405180910390f35b6000808273ffffffffffffffffffffffffffffffffffffffff161415610257576000905061034e565b6000808054905014806102d857508173ffffffffffffffffffffffffffffffffffffffff16600060016000805490500381548110151561029357fe5b906000526020600020900160009054906101000a900473ffffffffffffffffffffffffffffffffffffffff1673ffffffffffffffffffffffffffffffffffffffff1614155b1561034957600080548060010182816102f19190610540565b9160005260206000209001600084909190916101000a81548173ffffffffffffffffffffffffffffffffffffffff021916908373ffffffffffffffffffffffffffffffffffffffff160217905550506001905061034e565b600090505b919050565b61035b61056c565b600061036561056c565b6000808054905092508260405180591061037c5750595b90808252806020026020018201604052509150600090505b600080549050811015610433576000818154811015156103b057fe5b906000526020600020900160009054906101000a900473ffffffffffffffffffffffffffffffffffffffff1682828151811015156103ea57fe5b9060200190602002019073ffffffffffffffffffffffffffffffffffffffff16908173ffffffffffffffffffffffffffffffffffffffff16815250508080600101915050610394565b81935050505090565b3373ffffffffffffffffffffffffffffffffffffffff16600160009054906101000a900473ffffffffffffffffffffffffffffffffffffffff1673ffffffffffffffffffffffffffffffffffffffff1614156104cd57600160009054906101000a900473ffffffffffffffffffffffffffffffffffffffff1673ffffffffffffffffffffffffffffffffffffffff16ff5b565b600160009054906101000a900473ffffffffffffffffffffffffffffffffffffffff1681565b60008080549050905090565b60008181548110151561051057fe5b90600052602060002090016000915054906101000a900473ffffffffffffffffffffffffffffffffffffffff1681565b815481835581811511610567578183600052602060002091820191016105669190610580565b5b505050565b602060405190810160405280600081525090565b6105a291905b8082111561059e576000816000905550600101610586565b5090565b905600a165627a7a72305820b2ef89a30f2c4aaf38ff92b4005fe09f228c45ebf9f221895028d5d3221675720029a165627a7a723058204ee9facf08015512ff0d9a244fce1ef9ee5d6df4abfc283a654f205a296f15d60029",
  "source": "pragma solidity ^0.4.8;\r\n\r\nimport \"./PathsDB.sol\";\r\n\r\ncontract PathsController {\r\n    address public owner;\r\n    mapping (uint => address) public paths;\r\n\r\n    function PathsController() {\r\n        owner = msg.sender;\r\n    }\r\n\r\n    function createPath(uint _lotId, address _checkpoint) returns (bool) {\r\n        PathsDB pathsDB = new PathsDB();\r\n        pathsDB.addCheckpoint(_checkpoint);\r\n        paths[_lotId] = address(pathsDB);\r\n\r\n        return true;\r\n    }\r\n\r\n    function addCheckpoint(uint _lotId, address _checkpoint) returns (bool) {\r\n        bool result = PathsDB(paths[_lotId]).addCheckpoint(_checkpoint);\r\n        return result;\r\n    }\r\n\r\n    function createOrUpdatePath(uint _lotId, address _checkpoint) returns (bool result) {\r\n        if (_lotId == 0 || _checkpoint == 0x0) {\r\n            result = false;\r\n        }\r\n\r\n        if (paths[_lotId] == 0x0) {\r\n            result = createPath(_lotId, _checkpoint);\r\n        } else {\r\n            result = addCheckpoint(_lotId, _checkpoint);\r\n        }\r\n    }\r\n\r\n    function getPath(uint _lotId) constant returns (address[] memory path) {\r\n        if (paths[_lotId] == 0x0){\r\n            return path;\r\n        }\r\n\r\n        uint length = PathsDB(paths[_lotId]).getPathLength();\r\n\r\n        path = new address[](length);\r\n\r\n        for (uint i = 0; i < length; i++) {\r\n            path[i] = PathsDB(paths[_lotId]).path(i);\r\n        }\r\n\r\n        return path;\r\n    }\r\n\r\n    function destroyPath(uint _lotId) returns (bool){\r\n        if (owner == msg.sender) PathsDB(paths[_lotId]).destroy();\r\n        paths[_lotId] = 0x0;\r\n        return true;\r\n    }\r\n\r\n    function destroy() {\r\n        if (owner == msg.sender) selfdestruct(owner);\r\n    }\r\n}\r\n",
  "sourcePath": "C:\\Ajay\\chainer\\ChainingSupply\\contracts\\PathsController.sol",
  "compiler": {
    "name": "solc",
    "version": "0.4.18+commit.9cf6e910.Emscripten.clang"
  },
  "schemaVersion": "1.0.1",
  "updatedAt": "2018-01-20T21:23:48.306Z"
}